:100000000C943E000C9448000C9448000C9448005A
:100010000C9448000C9448000C9448000C94480040
:100020000C9448000C9448000C9448000C94480030
:100030000C9448000C9448000C9448000C94480020
:100040000C9448000C9448000C9448000C94480010
:100050000C9448000C9448000C9448000C94480000
:100060000C9448000C9448000C9448000C944800F0
:100070000C9448000C9448000C94480011241FBEB6
:10008000CFEFD8E0DEBFCDBF0E945A000C946C00C9
:100090000C94000099B1E3ECF9E03197F1F700C05E
:1000A000000089B192FF04C082FB882780F908957F
:1000B00080E008951AB88FEF84B9C1E0D0E012E073
:1000C0000E944A00882331F0C5B98D2F8A95F1F737
:0C00D00015B9F6CF15B8F4CFF894FFCFA7
:00000001FF
